:020000040000FA
:100000000C9477170C94A1170C94A1170C94A117BA
:100010000C94A1170C94A1170C94A1170C94A11780
:100020000C94A1170C94E3AF0C94A1170C94A11796
:100030000C94A1170C9428390C94A1170C94A117B7
:100040000C94A1170C9474370C9435B30C94A1172D
:100050000C94D0990C94A1170C94A1170C94A1178F
:100060000C94A1170C94A1170C94A1170C94A11730
:100070000C94A1170C94A1170C94A1170C94A11720
:100080000C94A1170C94A1170C94A1174E414E4942
:100090004E495459494E46CDCCCC3D0AD7233C1746
:1000A000B7D13877CC2B329595E6241FB14F0A0093
:1000B0000020410000C84200401C4620BCBE4CCA83
:1000C0001B0E5AAEC59D7470012C0190012701B022
:1000D000012201C0011D01F00118011002130130BD
:1000E000020E016002090190020401C002FF00003B
:1000F00003FA004003F5008003F000D003EB00207A
:1001000004E6007004E100E004DC004005D700C014
:1001100005D2004006CD00D006C8008007C30030DD
:1001200008BE00F008B900C009B400B00AAF00B0C2
:100130000BAA00D00CA500000EA000500F9B00C021
:100140001096005012910000148C00C0158700B06A
:10015000178200B0197D00D01B7800001E7300408C
:10016000206E0090226900F024640040275F009018
:10017000295A00E02B5500102E500020304B001063
:10018000324600E033410090353C001037370070B4
:10019000383200A0392D00B03A2800A03B2300607F
:1001A0003C1E00103D1900903D1400103E0F0070E1
:1001B0003E0A00C03E0500003F0000403FFBFF80BC
:1001C0003FF6FFC03FF1FF656E7175657565696E3D
:1001D000672022004B494C4C45442E200053544F7D
:1001E000505045442E20005072696E746572207321
:1001F000746F707065642064756520746F2065721B
:10020000726F72732E20466978207468652065725B
:10021000726F7220616E6420757365204D393939B3
:1002200020746F20726573746172742E2028546577
:100230006D70657261747572652069732072657383
:1002400065742E205365742069742061667465722C
:100250002072657374617274696E67290A004E6F4B
:1002600020436865636B73756D2077697468206CD3
:10027000696E65206E756D6265722C204C617374B9
:10028000204C696E653A20004E6F20436865636BB1
:1002900073756D2077697468206C696E65206E7562
:1002A0006D6265722C204C617374204C696E653AE6
:1002B0002000636865636B73756D206D69736D6194
:1002C0007463682C204C617374204C696E653A200D
:1002D000004C696E65204E756D62657220697320F1
:1002E0006E6F74204C617374204C696E65204E757E
:1002F0006D6265722B312C204C617374204C696ED9
:10030000653A20004D313130004D333100534420E7
:1003100072656164206572726F720A00446F6E6567
:10032000207072696E74696E672066696C650A0078
:1003300020496E76616C69642065787472756465B5
:10034000722000000000000000000000000000001B
:10035000006B4300006B4300007A43205A3A0020B0
:10036000593A0020436F756E7420583A0020453A80
:1003700000205A3A0020593A00583A002364656632
:10038000696E652044454641554C545F4B642000DE
:1003900023646566696E652044454641554C545F4B
:1003A0004B69200023646566696E652044454641BB
:1003B000554C545F4B702000504944204175746F78
:1003C00074756E652066696E697368656421205076
:1003D000757420746865206C617374204B702C20D8
:1003E0004B6920616E64204B6420636F6E7374618F
:1003F0006E74732066726F6D2062656C6F77206912
:100400006E746F20436F6E66696775726174696F91
:100410006E2E680A00504944204175746F74756EE1
:1004200065206661696C6564212074696D656F750E
:10043000740A00453120544845524D414C205255D4
:100440004E4157415900546865726D616C20527578
:100450006E617761790045312048656174696E6726
:10046000206661696C65640048656174696E672027
:100470006661696C656400504944204175746F740D
:10048000756E65206661696C6564212054656D70C8
:100490006572617475726520746F6F206869676832
:1004A0000A00204B643A2000204B693A2000204B80
:1004B000703A20000A20436C6173736963205049CD
:1004C00044200A002054753A2000204B753A200041
:1004D000206D61783A2000206D696E3A200020641A
:1004E0003A200020626961733A200050494420415B
:1004F00075746F74756E652073746172740A005040
:100500004944204175746F74756E65206661696C2D
:100510006564212054656D70657261747572652023
:10052000746F6F20686967680A00504944204175FC
:10053000746F74756E65206661696C656421204214
:100540006164206578747275646572206E756D6281
:1005500065720A0020746F6F206C6F6E672065787B
:1005600074727573696F6E2070726576656E7465EE
:10057000640A0020636F6C64206578747275736917
:100580006F6E2070726576656E7465640A00536CD8
:100590006565702E2E2E00436C69636B20746F208E
:1005A000726573756D652E2E2E004E6F206D6F7601
:1005B000652E00456E642066696C65206C697374F5
:1005C0000A00426567696E2066696C65206C697314
:1005D000740A004D31323500286E6F2066696C65F3
:1005E000290043757272656E742066696C653A20E5
:1005F000005344207072696E74696E67206279746A
:100600006520004E6F74205344207072696E7469C7
:100610006E670A0044656C6574696F6E2066616977
:100620006C65642C2046696C653A200046696C65EF
:100630002064656C657465643A00256973002569FA
:100640006D20256973002569682025696D2025695D
:100650007300256964202569682025696D20256956
:10066000730025697920256964202569682025693A
:100670006D20256973005072696E742074696D6510
:100680003A20004B494C4C45442E20006F6B002013
:10069000573A004520436F6F6C696E672E2E2E000F
:1006A000452048656174696E672E2E2E0020573AEA
:1006B0000042656420636F6F6C696E672E2E2E009A
:1006C0004265642068656174696E672E2E2E005441
:1006D0004833442055312E52322E313061204F663E
:1006E000662E002C20002C20004649524D574152C6
:1006F000455F4E414D453A4D61726C696E205448DC
:1007000033442055312E52322E31306120534F5513
:100710005243455F434F44455F55524C3A20505237
:100720004F544F434F4C5F56455253494F4E3A3109
:100730002E30204D414348494E455F545950453A6B
:10074000544833442055312E52322E3130612045E9
:10075000585452554445525F434F554E543A3120F8
:10076000555549443A0A002F2F20002054002052AA
:1007700000416363656C65726174696F6E3A205005
:10078000003F4A206F7574206F662072616E676546
:100790002028302E303120746F20302E33290A006B
:1007A00020466C6F773A2000496E76616C69642050
:1007B00065787472756465720A0020643A00206975
:1007C0003A0020703A004E6F2063617365206C69B7
:1007D0006768740A00454550524F4D204F4B0A0040
:1007E000496E736572742066696C616D656E742004
:1007F000616E6420707265737320627574746F6EBD
:100800000A00507265737320627574746F6E207481
:100810006F2068656174206E6F7A7A6C650A004992
:100820006E736572742066696C616D656E742061AB
:100830006E6420707265737320627574746F6E20BD
:10084000286F72204D313038290A0041637469766F
:10085000652045787472756465723A2000496E7639
:10086000616C69642065787472756465720A0052FF
:100870006573656E643A20006F6B00627573793A38
:100880002070617573656420666F7220696E707583
:10089000740A00627573793A20706175736564201B
:1008A000666F7220757365720A00627573793A20FB
:1008B00070726F63657373696E670A00506C65616F
:1008C0007365207265736574005052494E544552E9
:1008D0002048414C544544005072696E7465722042
:1008E00068616C7465642E206B696C6C28292063C8
:1008F000616C6C6564210A000000000000000000CB
:1009000000000000000020420000204200000041E2
:10091000000000005761726E696E673A20486F6D83
:10092000696E672042756D702044697669736F72D5
:10093000203C20310A000202040000A0400000A078
:10094000400000004000006B4300006B4300007A51
:1009500043FFFFFF4D3630303A20546F6F20636FF6
:100960006C6400486F74656E6420746F6F20636FF1
:100970006C640A007C3C3E5E2B3D3F2F5B5D3B2C54
:100980002A225C004572726F722077726974696EF8
:100990006720746F20454550524F4D210A00454550
:1009A00050524F4D206461746173697A652065729D
:1009B000726F722E0A00290A002062797465733BF7
:1009C00020637263200053657474696E67732053EB
:1009D000746F726564202800290A002062797465AA
:1009E000733B2063726320002073746F7265642010
:1009F00073657474696E6773207265747269657665
:100A00006564202800202863616C63756C617465DF
:100A10006429210A0020213D2000454550524F4DB8
:100A200020435243206D69736D61746368202D20EB
:100A30002873746F7265642920002053697A653ABF
:100A40002000496E6465783A2000204D61726C691F
:100A50006E3D563535290A0028454550524F4D3DCB
:100A600000454550524F4D2076657273696F6E2078
:100A70006D69736D61746368200048617264636FAF
:100A80006465642044656661756C74205365747494
:100A9000696E6773204C6F616465640A00F401003D
:100AA0000020030000F4010000881300000000484B
:100AB000430000484300007041000048420000A08D
:100AC000420000A0420000C8430000BE4220286D42
:100AD0006D290020440020490020204D3330312072
:100AE00050005049442073657474696E67733A0A04
:100AF00000204A0020540020530020204D32303581
:100B0000205100204A3C6A756E635F6465763E0042
:100B1000416476616E6365643A20513C6D696E5F35
:100B20007365676D656E745F74696D655F75733E3F
:100B300020533C6D696E5F66656564726174653EE5
:100B400020543C6D696E5F74726176656C5F66659A
:100B50006564726174653E002054002052002020BC
:100B60004D323034205000416363656C65726174AE
:100B7000696F6E2028756E6974732F7332293A205D
:100B8000503C7072696E745F616363656C3E2052A5
:100B90003C726574726163745F616363656C3E206F
:100BA000543C74726176656C5F616363656C3E0A88
:100BB00000204500205A0020590020204D323031BD
:100BC0002058004D6178696D756D20416363656CD7
:100BD00065726174696F6E2028756E6974732F7306
:100BE00032293A0A00204500205A002059002020CE
:100BF0004D3230332058004D6178696D756D206637
:100C000065656472617465732028756E6974732FED
:100C100073293A0A00204500205A0020590020205C
:100C20004D393220580053746570732070657220FE
:100C3000756E69743A0A0020204D31343920432002
:100C40003B20556E69747320696E2043656C73692F
:100C500075730A002020473231202020203B0048B5
:100C60006F6D696E67206661696C656400545249F6
:100C7000474745524544006F70656E003A20007A40
:100C80005F6D696E00795F6D696E00785F6D696E8A
:100C9000005265706F7274696E6720656E6473745C
:100CA0006F70207374617475730A00000000010096
:100CB0000000010000800055555500000040003341
:100CC000333300AAAA2A004992240000002000C75A
:100CD000711C0099991900D1451700555515003B15
:100CE000B113002449120011111100000010000F6F
:100CF0000F0F00E3380E0043790D00CCCC0C00C37D
:100D0000300C00E8A20B0064210B00AAAA0A0070B4
:100D10003D0A009DD80900427B090092240900DCAD
:100D2000D30800888808001042080000000800F07E
:100D3000C107008787070075500700711C07003E38
:100D4000EB0600A1BC06006990060066660600700E
:100D50003E06006118060017F4050074D105005B1B
:100D6000B00500B290050062720500555505007887
:100D7000390500B81E0500050505004EEC04008786
:100D8000D40400A1BD040090A7040049920400C14E
:100D90007D0400EE690400C7560400444404005C6E
:100DA0003204000821040041100400000004003F48
:100DB000F00300F8E0030026D20300C3C30300CC15
:100DC000B503003AA803000A9B0300388E0300C055
:100DD0008103009F750300D0690300505E03001D6E
:100DE00053030034480300913D03003333030016DE
:100DF000290300381F030097150300300C0300037C
:100E00000303000BFA020049F10200BAE802005C99
:100E1000E002002DD802002DD0020059C80200B017
:100E2000C0020031B90200DAB10200AAAA0200A091
:100E3000A30200BC9C0200FA9502005C8F0200DF56
:100E400088020082820200457C0200277602002789
:100E5000700200436A02007C640200D05E02003F20
:100E6000590200C8530200FFFDFCFAF8F6F4F2F054
:100E7000EEECEAE9E7E5E3E1E0DEDCDAD9D7D5D468
:100E8000D2D0CFCDCBCAC8C7C5C3C2C0BFBDBCBA04
:100E9000B9B7B6B4B3B2B0AFADACAAA9A8A6A5A471
:100EA000A2A1A09E9D9C9A99989795949392908FB9
:100EB0008E8D8B8A8988878684838281807F7E7DE0
:100EC0007B7A797877767574737271706F6E6D6CEA
:100ED0006B6A696867666564636261605F5E5D5CDA
:100EE0005B5A5958585756555453525150504F4EBB
:100EF0004D4C4B4A4A494847464645444342424185
:100F0000403F3E3E3D3C3B3B3A393838373635353D
:100F1000343332323130302F2E2E2D2C2B2B2A29E8
:100F20002928272726252524232322212120201F85
:100F30001E1E1D1C1C1B1B1A191918181716161516
:100F40001514131312121111100F0F0E0E0D0D0C9C
:100F50000C0B0A0A09090808070706060505040418
:100F60000303020201000024F4D43050C38E20C2D7
:100F7000A24017828B7011127A910D816CD90AA848
:100F800061E108C7586607615143061E4B5D05C104
:100F900045A7041A411104093D98037139310340F2
:100FA00036DB0265339102D4305402802E1D026379
:100FB0002CEE01752AC501B028A001102781018FF0
:100FC0002564012B244B01E0223401AC211F018D4B
:100FD000200D01801FFC00841EED00971DDF00B86E
:100FE0001CD200E61BC600201BBC00641AB200B273
:100FF00019A8000A19A0006A189900D11791004099
:10100000178B00B516840031167E00B31579003AAF
:10101000157300C7146F0058146A00EE1366008839
:1010200013630025135E00C7125B006C1257001596
:10103000125400C111510070114F0021114B00D604
:101040001049008D1047004610440002104200C0B5
:101050000F4000800F3E00420F3C00060F3B00CBCC
:101060000E3800930E37005C0E3500270E3400F367
:101070000D3200C10D3100900D3000600D2E003298
:101080000D2D00050D2C00D90C2B00AE0C29008570
:101090000C29005C0C2700350C27000E0C2600E8FC
:1010A0000B2400C40B2400A00B23007D0B23005A4B
:1010B0000B2100390B2100180B2000F80A1F00D962
:1010C0000A1E00BB0A1E009D0A1D00800A1D006347
:1010D0000A1C00470A1B002C0A1B00110A1A00F701
:1010E000091A00DD091900C4091900AB0919009299
:1010F0000917007B091800630917004C0916003610
:10110000091600200916000A091500F5081500E067
:10111000081400CC081400B8081400A408140090A7
:101120000813007D0812006B0813005808120046CF
:1011300008120034081100230811001208110001E0
:10114000081100F0071000E0071000D0071000C0E1
:10115000071000B0070F00A107100091070E0083D1
:10116000070F0074070F0065070E0057070E0049B0
:10117000070E003B070D002E070E0020070D001381
:10118000070D0006070D00F9060C00ED060D00E046
:10119000060C00D4060C00C8060C00BC060C00B0FF
:1011A000060C00A4060B0099060C008D060B0082AD
:1011B000060B0077060B006C060B0061060A005751
:1011C000060B004C060A0042060A0038060A002EEA
:1011D000060A0024060A001A060A0010060900077B
:1011E000060A00FD050900F4050900EB050900E207
:1011F000050900D9050900D0050900C7050900BE89
:10120000050900B5050800AD050800A50509009C05
:10121000050800940508008C050800840508007C7A
:10122000050800740508006C050700650508005DE9
:10123000050700560508004E050700470507004052
:1012400005080038050700310507002A05070023B7
:101250000507001C050600160507000F0507000816
:1012600005060002050700FB040600F5040700EE72
:10127000040600E8040600E2040700DB040600D5CB
:10128000040600CF040600C9040600C3040600BD1E
:10129000040600B7040600B1040500AC040600A66D
:1012A000040600A00405009B0406009504050090B8
:1012B0000406008A04050085040500800406007AFF
:1012C00004050075040500700405006B0405006644
:1012D000040500610405005C040500570405005284
:1012E0000405004D04050048040500430405003EC4
:1012F0000404003A04050035040500300404002C01
:1013000004050027040400230405001E0404001A39
:1013100004040016040500110404000D040400096F
:101320000405000404040000040400FC030400F8A5
:10133000030400F4030400F0030400EC030400E8D9
:10134000030400E4030400E0030400DC030400D809
:10135000030400D4030400D0030400CC030400C839
:10136000030300C503030024F404D9201BC40C5C50
:101370000E9804C4095F0265077101F405F900FBCA
:1013800004B30048048700C10369005803550003F3
:10139000034500BE023A008402310053022A0029AC
:1013A00002250004022000E4011C00C8011900AF5E
:1013B00001170098011400840113007101100061ED
:1013C00001100051010E0043010D0036010B002BEE
:1013D000010B0020010B00150109000C010900039D
:1013E000010800FB000800F3000800EB000700E420
:1013F000000600DE000600D8000600D2000600CC81
:10140000000500C7000500C2000500BD000400B9CA
:10141000000400B5000400B1000400AD000400A900
:10142000000400A5000300A20003009F0004009B2D
:101430000003009800030095000200930003009051
:101440000003008D0002008B00030088000200866C
:1014500000020084000300810002007F0002007D82
:101460000002007B00020079000200770001007694
:101470000002007400020072000100710002006F9F
:101480000002006D0001006C0002006A00010069AA
:1014900000020067000100660001006500010064B1
:1014A0000002006200010061000100600001005FB5
:1014B0000002005D0001005C0001005B0001005AB9
:1014C00000010059000100580001005700010056BA
:1014D00000010055000100540001005300000053BA
:1014E0000001005200010051000100500001004FB6
:1014F0000001004E0000004E0001004D0001004CB4
:101500000001004B0000004B0001004A00010049AF
:1015100000010048000000480001004700010046AB
:1015200000000046000100450000004500010044A5
:10153000000100430000004300010042000000429F
:101540000001004100000041000100400001003F97
:101550000000003F0001003E0000003E0001003D91
:101560000000003D0001003C0000003C0000003C89
:101570000001003B0000003B0001003A0000003A7F
:101580000001003900000039000100380000003877
:10159000000000380001003700000037000100366D
:1015A0000000003600000036000100350000003564
:1015B0000000003500010034000000340000003459
:1015C000000100330000003300000033000100324E
:1015D0000000003200000032000100310000003144
:1015E0000000003100010030000000300000003039
:1015F0000001002F0000002F0000002F0000002F2E
:101600000001002E0000002E0000002E0001002D21
:101610000000002D0000002D0000002D0001002C16
:101620000000002C0000002C0000002C0001002B0A
:101630000000002B0000002B0000002B0001002AFE
:101640000000002A0000002A0000002A00010029F2
:1016500000000029000000290000002900000029E6
:1016600000010028000000280000002800000028D9
:1016700000000028000100270000002700000027CC
:1016800000000027000000270001002600000026BF
:1016900000000026000000260000002600010025B2
:1016A00000000025000000250000002500000025A6
:1016B0000000002500010024000000240000002498
:1016C000000000240000002400010023000000238B
:1016D000000000230000002300000023000000237E
:1016E0000000002300010022000000220000002270
:1016F0000000002200000022000000220001002162
:101700000000002100000021000000210000002155
:101710000000002100000021000100200000002046
:101720000000002000000020000000200000002039
:1017300000000020000000200001001F0000001F2A
:101740000000001F0000001F0000001F0000001F1D
:101750000000001F0001001E0000001E0000001E0F
:101760000000001E00000039300000332500008713
:10177000190000B00F0000DB080000BD0400007479
:101780000200003F0100006265640A002C207379AA
:101790007374656D2073746F707065642120486583
:1017A000617465725F49443A20004265642068654F
:1017B0006174696E67206661696C65640048656183
:1017C00074696E67206661696C6564004531204804
:1017D000656174696E67206661696C65640048655F
:1017E0006174696E67206661696C6564001000C988
:1017F0000210012C014001220170011801B0010EFC
:1018000001F00104015002FA00B002F0003003E6DA
:1018100000D003DC009004D2007005C800A006BE12
:10182000000008B400B009AA00D00BA000600E961A
:101830000060118C000015820020197800C01D6E18
:1018400000A0226400B0275A00902C5000003146BE
:1018500000E0343C0010383200903A2800603C1E12
:1018600000A03D1400803E0A00203F0000453120CA
:101870004572723A204D415854454D5000457272A0
:101880003A204D415854454D5020424544004D4169
:101890005854454D502074726967676572656400DD
:1018A0004531204572723A204D494E54454D500005
:1018B0004572723A204D494E54454D5020424544A0
:1018C000004D494E54454D502074726967676572EA
:1018D000656400202F002042403A0020403A002555
:1018E000753A2530327500253032753A253032751B
:1018F0000025756420253032753A25303275005A3E
:1019000000590058000920000000000000000000FD
:10191000000000003FFFF000000000000000000099
:10192000000000380070000000000000000000000F
:10193000000030FC3000000000000000000000004B
:101940000020FC100000000000000000000000006B
:1019500020781000000000000000000000000020BF
:1019600030100000000000000000000000002C000B
:10197000D03FC0000000000000002082002E31D0C7
:101980007FE0000000000000001041002F7BD07FAE
:10199000E0000000000000001041002F7BD07FE03D
:1019A000000000000000002082002E31D03FC00067
:1019B0000000000000004104002C00D03FC00000E7
:1019C00000000000008208002030107FE0000000CE
:1019D000000000008208002078107FE00000000076
:1019E00000000041040020FC107FE0000000000027
:1019F000000020820030FC301F800000000000004A
:101A0000000000003800700F00000000000000001F
:101A1000FFFFC03FFFF0060000000000000000FFD5
:101A2000FFC00000000000000000000000000000F7
:101A3000003FFFF000000000000000000000000078
:101A400038007000000000000000000000000031BD
:101A50008630000000000000000000000000238726
:101A60001000000000000000000000000027879028
:101A70000000000000000000000000002F87D000E0
:101A800000000000000000000000002F03D03FC055
:101A9000000000000000002082002030107FE000E5
:101AA0000000000000001041002078107FE00000DE
:101AB00000000000001041002078107FE0000000CE
:101AC000000000002082002030103FC00000000015
:101AD0000000004104002F03D03FC00000000000C0
:101AE00000008208002F87D07FE000000000000087
:101AF000008208002787907FE000000000000000BF
:101B00004104002387107FE0000000000000002057
:101B100082003186301F80000000000000000000BD
:101B2000003800700F0000000000000000FFFFC040
:101B30003FFFF0060000000000000000FFFFC000B3
:101B40000000544833442055312E52322E3130613A
:101B50002052656164792E005072696E74696E67F7
:101B60002E2E2E005072696E74207061757365643C
:101B7000004D313235004D3234005072696E7420A0
:101B800061626F72746564004D3231004E6F205394
:101B9000442063617264004368616E67652053444A
:101BA0002063617264004D3231005072696E74209E
:101BB00066726F6D2053440053746F7020707269A9
:101BC0006E7400526573756D65207072696E740075
:101BD000496E69742E205344206361726400506121
:101BE000757365207072696E7400436F6E74726FE6
:101BF0006C00507265706172650054756E650049C5
:101C00006E666F2073637265656E00426162797300
:101C1000746570205A004368616E67652066696C60
:101C2000616D656E74004368616E67652066696CFE
:101C3000616D656E74004D36303020423000426177
:101C4000627973746570205A00466C6F7700466C39
:101C50006F770046616E2073706565640046616E43
:101C60002073706565640042656400426564004EDF
:101C70006F7A7A6C65004E6F7A7A6C650053706586
:101C80006564005370656564004D61696E00507253
:101C9000656865617420504C412042656400507253
:101CA000656865617420504C4120456E6400507237
:101CB000656865617420504C4100507265706172B6
:101CC0006500507265686561742041425320456E1D
:101CD000640050726568656174204142532042651A
:101CE000640050726568656174204142530050720F
:101CF0006570617265004261636B004E65787420A7
:101D0000506F696E74005072656865617420504C44
:101D10004100436F6F6C646F776E00507265686549
:101D2000617420414253004368616E6765206669B3
:101D30006C616D656E74004368616E6765206669ED
:101D40006C616D656E74004D363030204230004459
:101D5000697361626C65207374657070657273007D
:101D60004D3834004C6576656C20636F726E657219
:101D70007300486F6D65205A00473238205A00487A
:101D80006F6D65205900473238205900486F6D65E6
:101D90002058004732382058004175746F20686F12
:101DA0006D6500473238004D6F7665206178697344
:101DB000004D61696E004D6F76652058004D6F765D
:101DC000652059004D6F7665205A0045787472750C
:101DD000646572004D6F766520302E316D6D004D5B
:101DE0006F766520316D6D004D6F76652031306DF9
:101DF0006D004D6F76652061786973004578747267
:101E000075646572004D6F7665205A004D6F76657A
:101E10002059004D6F7665205800457874727564BE
:101E20006572004D6F7665205A004D6F76652059BA
:101E3000004D6F76652058005072657061726500C4
:101E4000526573657420454550524F4D00436F6E87
:101E500074726F6C00526573657420454550524F23
:101E60004D0053746F72652073657474696E677387
:101E70000046696C616D656E74004D6F74696F6EBC
:101E80000054656D7065726174757265004D6169AD
:101E90006E004D33303320553120452569205325C0
:101EA0006900504944204175746F74756E65005027
:101EB0004944204175746F74756E65005049442D16
:101EC00044005049442D44005049442D4900504994
:101ED000442D49005049442D50005049442D500094
:101EE00046616E2073706565640046616E20737094
:101EF0006565640042656400426564004E6F7A7AED
:101F00006C65004E6F7A7A6C6500436F6E74726F09
:101F10006C00436F6E74726F6C00436F6E74726FFF
:101F20006C0043616E6E6F7420656E746572207311
:101F300075626469723A2000022E2E0001526566B5
:101F400072657368004D61696E004D373032205400
:101F50002564004D36303020423020542564004D39
:101F6000373032203B2564004D3730312054256412
:101F7000004368616E67652066696C616D656E74AB
:101F8000005072656865617420414253005072656B
:101F90006865617420504C41004368616E6765203C
:101FA00066696C616D656E74005052494E542050E4
:101FB000415553454400554E4C4F41442046494CF1
:101FC000414D454E54004C4F41442046494C414DF3
:101FD000454E54005075726765206D6F7265004301
:101FE0006F6E74696E756500524553554D45204FAF
:101FF0005054494F4E533A0020204E6F7A7A6C6508
:102000003A20006368616E6765006F6620746865DA
:102010002066696C616D656E740057616974206635
:102020006F722073746172740020204E6F7A7A6C24
:10203000653A2000200066696C616D656E742075DC
:102040006E6C6F6164005761697420666F72002066
:10205000204E6F7A7A6C653A20002000506C6561E2
:10206000736520776169742E2E2E0048656174694E
:102070006E67206E6F7A7A6C650020204E6F7A7AD8
:102080006C653A2000200068656174206E6F7A7A72
:102090006C652E00507265737320627574746F6E78
:1020A00020746F0020204E6F7A7A6C653A2000749D
:1020B0006F20636F6E74696E75652E2E2E00616ED3
:1020C0006420707265737320627574746F6E00495A
:1020D0006E736572742066696C616D656E74002044
:1020E000204E6F7A7A6C653A2000200066696C6138
:1020F0006D656E74206C6F61640057616974206651
:102100006F720020204E6F7A7A6C653A20002000B2
:1021100066696C616D656E742070757267650057D5
:1021200061697420666F7200746F20726573756DDB
:1021300065005761697420666F72207072696E74F1
:1021400000000000010200090A000000000403086A
:102150000700000000000000000000000000000078
:10216000000200000000000000000000000000006D
:10217000000000000000000000000000000000005F
:10218000000000000000000000000000000000004F
:1021900000000000000000000003C000000000007C
:1021A00000000000000000000003C000000000006C
:1021B00000000000000000000003C000000000005C
:1021C00000000000000000000003C000000000004C
:1021D00000000000000000000003C000000000003C
:1021E00000000000000000000003C000000000002C
:1021F00000000000000000000003C000000000001C
:1022000000000000000000000003C000000000000B
:1022100000000000000000000007E00000000000D7
:102220000000000000000000001FF8000000000097
:102230000000000000000000007FFE000000000021
:10224000000000000000000000FFFF000000000090
:10225000000000000000000003FFFFC000000000BD
:10226000000000000000000007FC3FE0000000004C
:1022700000000000000000000FF81FF00000000048
:1022800000000000000000000FF00FF00000000050
:1022900000000000000000000FFC3FF00000000004
:1022A00000000000000000000FFF7FF000000000B1
:1022B00000000000000000000FFFFFF00000000021
:1022C00000000000000000000FFFFFF00000000011
:1022D00000000000000000000F9FF9F00000000067
:1022E00000000000000000000F8FF1F0000000006F
:1022F00000000000000000000F83C1F0000000009B
:1023000000000000000000000F83C1F0000000008A
:1023100000000000000000000F83C1F0000000007A
:1023200000000000000000001FC3C3F80000000010
:1023300000000000000000007FF3CFFE000000005E
:102340000000000000000000FFFBDFFF00000000B5
:102350000000000000000003FFFFFFFFC0000000BE
:10236000000000000000000FFDFFFFBFF0000000B4
:10237000000000000000000FF8FFFF1FF000000049
:10238000000000000000000FE03FFC07F00000002C
:10239000000000000000000F800FF001F0000000BE
:1023A000000000000000000F0007E000F000000047
:1023B000000000000000000000000000000000001D
:1023C000000000000000000000000000000000000D
:1023D00000000000000000000000000000000000FD
:1023E00000000000000000000000000000000000ED
:1023F00000000000000000000000000000000000DD
:1024000000000000000000000000000000000000CC
:1024100000000000000000000000000000000000BC
:102420000000000000001FFFFC1F1FE3FFC00000B2
:102430000000000000001FFFFC1F3FF3FFE0000052
:102440000000000000001FFFFC1F3FFBFFF000002A
:102450000000000000001FFFFC1F7CFBFFF80000D5
:1024600000000000000001F07C1F7C7BE1F8000010
:1024700000000000000001F07C1F787BE0F8000005
:1024800000000000000001F07FFF03FBE078000087
:1024900000000000000001F07FFF03F3E07800007F
:1024A00000000000000001F07FFF03FBE078000067
:1024B00000000000000001F07FFF03FBE078000057
:1024C00000000000000001F07C1F007BE0780000AD
:1024D00000000000000001F07C1F787BE0F80000A5
:1024E00000000000000001F07C1F787BE1F8000094
:1024F00000000000000001F07C1F7CFBFFF00000EA
:1025000000000000000001F07C1F7FFBFFF00000D6
:1025100000000000000001F07C1F3FF3FFE000001E
:1025200000000000000001F07C1F1FE3FF8000009E
:10253000000000000000000000000000000000009B
:10254000000000000000000000000000000000008B
:10255000000000000000000000000000000000007B
:1025600000001FFFFFFFFFFFFF600000000001FFF2
:10257000400000000000FF8000000000007F83CFCB
:1025800000000C303F87FF80000C301F86798000F0
:102590000C000F8C30C7838C30E78C30CFC7CC3128
:1025A000F38C30DCECEC33B98C30D86C6C33198C98
:1025B00030D06C0C33198C30D86C0C33198C30DC67
:1025C0006C0E3B198C30CF7C079F198C30C77C0375
:1025D0008F194000000000000260000000000006AB
:1025E0001FFFFFFFFFFFF82020506C616E6E6572C9
:1025F00042756666657242797465733A20002046BA
:10260000726565204D656D6F72793A2000436F6D7C
:1026100070696C65643A204A756C2032392032301A
:1026200032320A00207C20417574686F723A20288B
:1026300054483344290A0000204C617374205570BB
:1026400064617465643A2000544833442055312E47
:1026500052322E3130610A004D61726C696E002079
:10266000536F6674776172652052657365740A00F2
:10267000205761746368646F672052657365740ADC
:10268000002042726F776E206F75742052657365FB
:10269000740A002045787465726E616C205265730F
:1026A00065740A00506F77657255700A0073746123
:1026B00072740A006175746F25692E670065727205
:1026C0006F722077726974696E6720746F20666913
:1026D0006C650A00456E6473746F70732025632007
:1026E000256320256320256300205A3A0020593AAB
:1026F0000020583A00656E6473746F7073206869C7
:10270000743A2000446F6E6520736176696E6720AD
:1027100066696C652E0A004D3239004D3234004D29
:10272000323320257300556E6B6E6F776E20636FAA
:102730006D6D616E643A202200496E73657274207B
:1027400066696C616D656E7420616E64207072657F
:10275000737320627574746F6E20286F72204D3110
:102760003038290A00486F74656E6420746F6F20DA
:10277000636F6C640A0053442063617264206F6B62
:102780000A006F70656E526F6F74206661696C65C8
:10279000640A00766F6C756D652E696E69742066CB
:1027A00061696C65640A00534420696E697420662F
:1027B00061696C0A00486F6D652025732573257368
:1027C000206669727374002066697273740A005A15
:1027D0000059005800486F6D65200020746F6F200D
:1027E0006C6F6E6720657874727573696F6E207098
:1027F000726576656E7465640A0020636F6C642090
:10280000657874727573696F6E2070726576656E27
:102810007465640A0057726974696E6720746F206A
:1028200066696C653A20006F70656E206661696C40
:1028300065642C2046696C653A20006F70656E20D7
:102840006661696C65642C2046696C653A200046B7
:10285000696C652073656C65637465640A00205358
:10286000697A653A200046696C65206F70656E650F
:10287000643A20002066696C653A2000646F696ED6
:1028800067006672657368004E6F772000454E449E
:1028900020535542524F5554494E450A002220704C
:1028A0006F73002220706172656E743A2200535576
:1028B00042524F5554494E452043414C4C2074617F
:1028C000726765743A22004B494C4C45442E2000F7
:1028D000747279696E6720746F2063616C6C207309
:1028E00075622D67636F64652066696C6573207718
:1028F00069746820746F6F206D616E79206C6576E5
:10290000656C732E204D4158206C6576656C20698E
:10291000733A004572726F723A006F70656E20668E
:1029200061696C65642C2046696C653A20004361DE
:102930006E6E6F74206F70656E207375626469725D
:1029400020006563686F3A00453120544845524D78
:10295000414C2052554E4157415900424544205464
:102960004845524D414C2052554E41574159005413
:102970006865726D616C2052756E617761790000D7
:10298000002200250028002B000000210024002741
:10299000002A0002020202020202020404040404E9
:1029A00004040403030303030303030101010101FE
:1029B00001010101020408102040800102040810F6
:1029C0002040800102040810204080804020100830
:1029D00004020100060900FE0701920321207FFF87
:1029E00007FF07FF000000060000010707060200BE
:1029F00080808080800080030202060105A0A0057F
:102A000007070600005050F850F850500507070619
:102A100000002078A07028F020050707060000C0FD
:102A2000C810204098180507070600006090A040D5
:102A3000A89068020303060104C04080030707064C
:102A400001002040808080402003070706010080AD
:102A500040202020408005050506000120A870A820
:102A6000200505050600012020F8202002030306AA
:102A700002FFC04080050101060003F802020206C1
:102A80000200C0C0050505060001081020408005B1
:102A90000707060000708888888888700307070683
:102AA000010040C040404040E005070706000070BC
:102AB0008808708080F8050707060000F8102010CD
:102AC0000808F005070706000010305090F81010B5
:102AD000050707060000F880F0080888700507075A
:102AE000060000708080F0888870050707060000E7
:102AF000F8081020202020050707060000708888AD
:102B000070888870050707060000708888780808B4
:102B100070020505060200C0C000C0C0020606061D
:102B200002FFC0C000C0408004070706000010205C
:102B30004080402010050303060002F800F8040757
:102B4000070601008040201020408005070706008E
:102B50000070880810200020050707060000708814
:102B60000868A8A870050707060000708888F8881C
:102B70008888050707060000F08888F08888F00537
:102B800007070600007088808080887005070706A8
:102B90000000F08888888888F0050707060000F89C
:102BA0008080F08080F8050707060000F88080F03C
:102BB000808080050707060000708880B8888870CC
:102BC000050707060000888888F8888888010707B5
:102BD0000602008080808080808005070706000054
:102BE000381010101090600507070600008890A0AC
:102BF000C0A0908805070706000080808080808044
:102C0000F805070706000088D8A88888888805077F
:102C1000070600008888C8A8988888050707060066
:102C20000070888888888870050707060000F0888B
:102C300088F080808005070706000070888888A8D3
:102C40009068050707060000F08888F0A0908805C6
:102C50000707060000788080700808F0050707065F
:102C60000000F8202020202020050707060000880B
:102C70008888888888700507070600008888888803
:102C80008850200507070600008888888888A85093
:102C90000507070600008888502050888805070728
:102CA00006000088888850202020050707060000BD
:102CB000F80810204080F8030707060100E0808034
:102CC000808080E005050506000180402010080393
:102CD0000707060100E02020202020E0050303066E
:102CE0000004205088050101060000F802020206D7
:102CF0000205804005050506000070087888780503
:102D000007070600008080B0C88888F00505050622
:102D100000007080808870050707060000080868BA
:102D2000988888780505050600007088F880700589
:102D300007070600003048E0404040400506060610
:102D400000FF7088887808700507070600008080FB
:102D5000B0C888888801070706020080008080804C
:102D600080800308080601FF200020202020A040CA
:102D7000040707060000808090A0C0A0900307070A
:102D8000060100C04040404040E005050506000047
:102D9000D0A8A8A8A8050505060000B0C88888889E
:102DA000050505060000708888887005060606007F
:102DB000FFF08888F080800506060600FF78888886
:102DC000780808050505060000B0C8808080050564
:102DD0000506000070807008F00407070600004038
:102DE00040E040404030050505060000888888988E
:102DF0006805050506000088888850200505050639
:102E000000008888A8A85005050506000088502005
:102E100050880506060600FF888888780870050532
:102E200005060000F8102040F803070706010020FF
:102E300040408040402001070706020080808080DB
:102E400080808003070706010080404020404080CA
:102E5000050202060002689000000006000000065D
:102E60000900FE000000000001090008FE00000546
:102E7000080806000040F0C88888987810050808FF
:102E8000060000C0F88888888888F80505050600CF
:102E9000012030F830200508080600002070F820D6
:102EA000202020E00509090600FF2070A8A8B888A6
:102EB0008870200509090600FFE080C0B0A828300E
:102EC00028280509090600FFF8A88888888888A8A6
:102ED000F8050A0A0600FE205050505088A8A8881D
:102EE0007003030306000340A04007C8E9C711248C
:102EF0001FBECFEFD0E4DEBFCDBF12E0A0E0B1E057
:102F0000E4EEF4EB01E00BBF02C007900D92A23596
:102F1000B107D9F723E1A2E5B2E001C01D92AB3DB4
:102F2000B207E1F717E1C6E7D7E104C02197FE0138
:102F30000E94CED9C537D107C9F70E94EEC80C94BC
:102F400065DA0C9400002CEA35EC47E25EE3609110
:102F5000D4047091D5048091D6049091D7040E9436
:102F600002D86093D8047093D9048093DA049093C4
:102F7000DB0408952CEA35EC47E25EE36091DC0463
:102F80007091DD048091DE049091DF040E94B4D33F
:102F90006093E0047093E1048093E2049093E3046F
:102FA00008956091150170911601072E000C880B91
:102FB000990B0E9455D32AE037ED43E25CE30E946F
:102FC000B4D3609341017093420180934301909385
:102FD0004401089511980000000087FD52C04198F7
:102FE00000000000119A000000001198000000008D
:102FF00086FD53C0419800000000119A00000000B7
:1030000011980000000085FD46C0419800000000B6
:10301000119A0000000011980000000084FD39C0E2
:10302000419800000000119A000000001198000073
:10303000000083FD2CC0419800000000119A0000A0
:10304000000011980000000082FD1FC041980000A0
:103050000000119A0000000011980000000081FD9E
:1030600012C0419800000000119A00000000119861
:1030700000000000419800000000119A00000000CC
:103080000895419AADCF419AEDCF419AE0CF419A50
:10309000D3CF419AC6CF419AB9CF419AACCF909144
:1030A0006F00292F227091FF05C090916F009D7FC6
:1030B00090936F0034E0839FC0011124FC01EA5F0C
:1030C000F64F4081518162817381875F9B4FFC0184
:1030D000408351836283738381E0809308042223B9
:1030E00029F080916F00826080936F000895EF92C5
:1030F000FF920F931F93E0925F02F09260020093A1
:103100006102109362026093630270936402809381
:1031100065029FEFFF27621B730B840B30F48095D1
:1031200070956195790B890B992790935E02A6E0C3
:103130006A9F00925202512DEE277A9F500DE11D99
:103140008A9FE00D50935302E0935402AFE06A9FD0
:1031500000925602512DEE277A9F500DE11D8A9F55
:10316000E00D50935702E0935802AAE06A9F009244
:103170005A02512DEE277A9F500DE11D8A9FE00DD6
:1031800050935B02E0935C021F910F91FF90EF90D0
:1031900008959F92AF92BF92CF92DF92EF92FF92EB
:1031A0000F931F93CF93DF9300D000D01F92CDB722
:1031B000DEB7E7E6FEE00027BB27462F572FA82FF4
:1031C000AA2341F4A52F542FB85FAA2319F4A52FE1
:1031D0005527B85FA03138F45295A295452F4F700E
:1031E000507FA42BBC5FA03428F4550FAA1F550FA5
:1031F000AA1FBE5FA03818F4550FAA1FB395550F2C
:10320000AA1FEA0FF01F449151E0AA27B85081F19C
:10321000C8F0B0FF02C0440F551FB1FF04C0440FF7
:10322000551F440F551FB2FF06C052954295142FEB
:103230001F70407F512BB3FF1BC0A52F542F442775
:103240000C943819B195B0FF02C055954795B1FF60
:1032500004C05595479555954795B2FF05C05295C1
:10326000407F4295452B5F70B3FF02C0452F552725
:10327000DD24CC24BB24B2E0649FD018C108B00A7E
:10328000B00B749FC018B108B00B849FB018B1097F
:10329000659FC018B108B00B759FB018B109859F24
:1032A000B0196A9FB018B1097A9FB0194D9DA12C31
:1032B00099243327992722275D9DA00C911C301F4C
:1032C000901F201FAD9D900C311D901F201F4C9D05
:1032D000A00C911C301F901F201F5C9D900C311D75
:1032E000901F201FAC9D300D911D201F4B9D900CF9
:1032F000311D901F201F5B9D300D911D201FAB9D28
:10330000900D211D4B9F300D911D201F5B9F900D37
:10331000211DAB9F200DB1E0BB24CC24DD24639F95
:10332000D018C108B00AB00B739FC018B108B00B19
:10333000839FB018B109699FC018B108B00B799F7D
:10334000B018B109899FB019629FB018B109729F76
:10335000B019D61AC70AB80A20F0B1E03B0F901F87
:10336000201F1124792F632F90E0822F0F900F9050
:103370000F900F900F90DF91CF911F910F91FF90C1
:10338000EF90DF90CF90BF90AF909F9008954F92B5
:103390005F926F927F928F929F92AF92BF92EF92C5
:1033A000FF920F931F93CF93DF93CAE1D9E08CE490
:1033B000E82E8FE0F82E0AE219E0412C512C320160
:1033C00043946991799189919991F70181909190B4
:1033D000A190B1907F010E9453D3A50194010E9456
:1033E000B4D30E947BD8F801619371938193919338
:1033F0008F01461657066806790610F42B013C012A
:10340000F9E0CA32DF07E9F66FEF7FEFCB01A301E6
:1034100092010E9442D720933A0930933B0940938E
:103420003C0950933D09DF91CF911F910F91FF907F
:10343000EF90BF90AF909F908F907F906F905F9034
:103440004F900895CF93DF9390916F00292F2270B2
:1034500091FF05C090916F009D7F90936F0094E065
:10346000899FA0011124FA01EA5FF64F6081718102
:1034700082819381222329F020916F002260209382
:103480006F00EA01CE59D64F0E9455D32881398169
:103490004A815B810E94B4D3DF91CF9108958091DE
:1034A0006F00982F927081FF05C080916F008D7F13
:1034B00080936F0010925A0910925B0910925C0978
:1034C00010925D09992329F080916F0082608093AA
:1034D0006F0008950F931F938091CE0F9091CF0F9F
:1034E000891B8F7009F449C09091CB0F992361F02B
:1034F000833040F48FEF890F29F08093CB0F90E059
:1035000080E038C01092CB0F8091CF0F2DE5829FC5
:10351000C00111248458964FFC01208120FDEFCF7B
:1035200040915A0950915B0960915C0970915D0965
:10353000E75AFF4F0081118122813381401B510BDB
:10354000620B730B40935A0950935B0960935C09BB
:1035500070935D092091CF0F2F5F2F702093CC0FB8
:103560003091CF0F2091CD0F321304C02091CC0F9A
:103570002093CD0F1F910F9108950E944F1ABFCF36
:10358000CF93DF938091C103329B5CC081608093B5
:10359000C1038091C103339957C08D7F8093C103CC
:1035A0008091C103349952C08B7F8093C103809175
:1035B000C1039091C003981709F44AC097E0909313
:1035C000BF038093C00380910505882309F44DC093
:1035D000C091F903C0FF10C08091C20380FF0CC0EE
:1035E0008091BE0380FF08C08091180581608093A0
:1035F000180580E00E944F18C1FF10C08091C203DF
:1036000081FF0CC08091BE0381FF08C08091180526
:1036100082608093180581E00E944F18C2FF25C088
:103620008091C20382FF21C08091BE0382FF1DC032
:103630008091180584608093180582E0DF91CF9116
:103640000C944F188E7FA3CF8260A8CF8460ADCF3B
:103650008091BF03882309F4B6CF81508093BF03C4
:103660008111B1CF9093BE03AECFDF91CF9108957A
:103670005E9A809106058E7F809306055E9A809102
:1036800006058D7F80930605159A809106058B7F30
:10369000809306055E9A0895CF93DF9380E00E94A1
:1036A000221AC4E9D3E0688379838A839B8381E00B
:1036B0000E94221A6C837D838E839F8382E00E9406
:1036C000221A688779878A879B87DF91CF9108952F
:1036D0000F931F93CF93DF9394E0899FE001112410
:1036E0008E010E541B4FFE01E95FFA4FDE01A85513
:1036F000BC4F2D913D914D915C9160817181828192
:1037000093810E947FD7F8016083718382839383C2
:10371000FE01ED5BFC4F85919591A591B491FE0161
:10372000E254FB4F80839183A283B383FE01E15B6C
:10373000FC4F85919591A591B491C75EDE4F88832A
:103740009983AA83BB83DF91CF911F910F91089535
:1037500090911705E92FF0E0ED5EFA4F80839F5FAF
:10376000943040F49093170580919A068F5F809370
:103770009A06089510921705F7CF2FEB280F2A31DC
:1037800008F042C0E22FF0E08091FE029091FF022B
:10379000A0910003B091010304C0B695A795979539
:1037A00087952A95D2F780FD02C081700895EC516B
:1037B000FD4FE081EE2329F18091BD069091BE0678
:1037C000E80FF92FF11D808190ED980F9A3030F0BD
:1037D0008E3251F4818180538A3098F4F0936802DC
:1037E000E093670281E008958D3211F08B3249F445
:1037F000818190ED980F9A3088F38E3211F4828196
:10380000EACFF0E0E0E0EACF80E008950E94BD1B3F
:10381000882341F081E02091670230916802232BD8
:1038200009F480E00895089590E080E0089580E133
:10383000E5EDF6E0A5ECB6E001900D928A95E1F792
:10384000089580E1E5ECF6E0A5EDB6E001900D927B
:103850008A95E1F7089580919203909193032FEF59
:103860003FEF981751F0E92FF0E0EE5EFC4F20811A
:1038700030E09F5F9F7790939303C90108950C9464
:10388000B0B0CF92DF92EF92FF92CF93C82F0E94F9
:10389000A4B06B017C0124EA30E74DE75FE360915F
:1038A000CA047091CB048091CC049091CD040E9405
:1038B0004ED387FD18C08AEF90E0A0E0B0E08C0DF9
:1038C0009D1DAE1DBF1D8093E8049093E904A09355
:1038D000EA04B093EB04C0932F01CF91FF90EF90D7
:1038E000DF90CF90089580E090E0DC01E8CF0F9367
:1038F0001F9380919A04813019F50E94A4B0009121
:10390000190410911A0420911B0430911C04601BAF
:10391000710B820B930B28EE33E040E050E00E94E5
:1039200042D760911504709116048091170490910C
:103930001804620F731F841F951F1F910F91089524
:1039400060911D0470911E0480911F0490912004C9
:10395000D6CF80919A04813079F482E080939A04E2
:103960000E94A4B060931D0470931E0480931F04F2
:103970009093200481E0089580E00895CF92DF9233
:10398000EF920F931F93CF93DF93CDB7DEB72897B6
:103990000FB6F894DEBF0FBECDBFE090F50680E015
:1039A00090E0A0E8B0E48D839E83AF83B88719824E
:1039B0001A821B821C82CE0101966C018E010B5F64
:1039C0001F4F21EE36E04DED56E069ED76E085EDD6
:1039D00096E00E940A9E28960FB6F894DEBF0FBEAE
:1039E000CDBFDF91CF911F910F91EF90DF90CF90DE
:1039F0000895CF92DF92EF920F931F93CF93DF93AF
:103A0000CDB7DEB728970FB6F894DEBF0FBECDBF97
:103A100080E090E0A0E8B0E48093DD069093DE06BD
:103A2000A093DF06B093E0060E94BE1C8091B10413
:103A3000823009F46AC00CF044C0882309F44BC0FA
:103A4000813009F455C0E090F50680E090E0ACE8E4
:103A5000B2E48D839E83AF83B88719821A821B825A
:103A60001C82CE0101966C018E010B5F1F4F21EE6F
:103A700036E04DED56E069ED76E085ED96E00E948A
:103A80000A9E1092DD061092DE061092DF0610925A
:103A9000E0060E94BE1C8091B1048F5F85300CF05F
:103AA00046C08093B10428960FB6F894DEBF0FBECF
:103AB000CDBFDF91CF911F910F91EF90DF90CF900D
:103AC0000895833079F1843009F0BDCF80E090E033
:103AD000AAEEB2E404C080E090E0A0EFB1E48093ED
:103AE000D5069093D606A093D706B093D80611C0FA
:103AF00080E090E0ACE4B3E48093D5069093D606E2
:103B0000A093D706B093D8069ECF80E090E0ACE4B7
:103B1000B3E48093D9069093DA06A093DB06B093C2
:103B2000DC0691CF80E090E0A0EFB1E4E5CF109209
:103B3000B104B9CFCF92DF92EF920F931F93CF933F
:103B4000DF9300D000D0CDB7DEB7E090F506198244
:103B50001A821B821C82CE0101966C0100E011E0EA
:103B600021EE36E04DED56E069ED76E085ED96E02C
:103B70000E940A9E0F900F900F900F90DF91CF91AF
:103B80001F910F91EF90DF90CF9008950F931F93A7
:103B9000CF93DF93CDB7DEB728970FB6F894DEBF8B
:103BA0000FBECDBF882339F183E992E09E838D83D8
:103BB00004E610E01A830983BE016B5F7F4FCE01DC
:103BC00001960E94D69D8AEB92E098878F831A8394
:103BD0000983BE01695F7F4FCE0101960E94D69D89
:103BE00028960FB6F894DEBF0FBECDBFDF91CF9100
:103BF0001F910F91089588EB91E09C838B8384E162
:103C000090E09A838983BE016D5F7F4FE5CF9F92DD
:103C1000AF92BF92CF92DF92EF92FF920F931F93DA
:103C2000CF93DF935B01E9014A3009F4C4C0453109
:103C300009F067C0DB011296ED91FC91F280C6811C
:103C4000D781139A88E290E00197F1F7EF2CE29484
:103C500020EFE22230E1932E9F0C48E2C42ED12CBB
:103C600088EF0E94EA17C6010197F1F7BFE1BF157F
:103C700008F488C08F2D807780680E94EA178E2D07
:103C80000E94EA17C6010197F1F780E80E94EA173F
:103C900080E00E94EA17C6010197F1F78AEF0E94BF
:103CA000EA17C6010197F1F78E01005F1F4F888167
:103CB000807F0E94EA1789918295807F0E94EA178F
:103CC000C017D107A1F7C6010197F1F7F394E0E11E
:103CD000EE0EF910C5CF1398D50112960D911C91D7
:103CE000C8010E9495B38111FEC1DF91CF911F9150
:103CF0000F91FF90EF90DF90CF90BF90AF909F908B
:103D00000895FB0102811381ECEEE40FE43308F027
:103D100050C0F0E0E257F14E0C94CED91B20701E3B
:103D2000D91E6320D91ED91ED91ED91ED91ED91E4F
:103D3000D91ED91ED91ED91ED91ED91ED91ED91ECB
:103D4000D91ED91ED91ED91ED91ED91ED91ED91EBB
:103D5000D91ED91ED91ED91E5D20D91ED91ED91E25
:103D6000D91ED91ED91ED91ED91E2E20D91ED91E44
:103D7000D91ED91ED91ED91ED91ED91ED91ED91E8B
:103D80008020D51E80EE8F0D8068807F0E94EA170C
:103D90008F2D8295807F0E94EA17C6010197F1F767
:103DA00080E80E94EA1780E874CFD80111968C91C0
:103DB000888381E09ACF0B9A1398399A4198099A8F
:103DC000119A139A88E290E00197F1F788E790E062
:103DD000CEE9DFE0FE013197F1F70197D9F788EFDF
:103DE0000E94EA1708E210E0C8010197F1F780E2AB
:103DF0000E94EA1780E00E94EA17C8010197F1F7D4
:103E000080E00E94EA1780E80E94EA17C801019743
:103E1000F1F780E00E94EA1780E10E94EA17C801EA
:103E20000197F1F7CE010197F1F7CE010197F1F774
:103E3000CE010197F1F7CE010197F1F7CE0101977D
:103E4000F1F7CE010197F1F7CE010197F1F7CE011D
:103E50000197F1F7CE010197F1F7CE010197F1F744
:103E6000CE010197F1F7CE010197F1F7CE0101974D
:103E7000F1F7CE010197F1F72197F1F780E20E9467
:103E8000EA1780E40E94EA17C8010197F1F780E27F
:103E90000E94EA1780E60E94EA17C8010197F1F72D
:103EA00000E010E0C8E2D0E0812F807780680E94B7
:103EB000EA17802F0E94EA17CE010197F1F780E8F8
:103EC0000E94EA1780E00E94EA17CE010197F1F7FD
:103ED0008AEF0E94EA17CE010197F1F780E211986C
:103EE00000000000419800000000119A000000004E
:103EF000119800000000419800000000119A000095
:103F00000000119800000000419800000000119A84
:103F1000000000001198000000004198000000001F
:103F2000119A000000001198000000004198000064
:103F30000000119A00000000119800000000419854
:103F400000000000119A000000001198000000001D
:103F5000419800000000119A000000001198000034
:103F60000000419800000000119A00000000119824
:103F700000000000419800000000119A00000000BD
:103F8000119800000000419800000000119A000004
:103F90000000119800000000419800000000119AF4
:103FA000000000001198000000004198000000008F
:103FB000119A0000000011980000000041980000D4
:103FC0000000119A000000001198000000004198C4
:103FD00000000000119A000000001198000000008D
:103FE000419800000000119A0000000011980000A4
:103FF0000000419800000000119A00000000FE013E
:104000003197F1F7815009F06ACF88EF0E94EA17E3
:10401000CE010197F1F71F5F005F103209F044CF26
:1040200080E00E94EA1780EC0E94EA172197F1F7DE
:10403000139881E05ACED80115964C91159750E00F
:10404000440F551F70E060E016968D919C910E9480
:10405000FDD9C8010E94ABB381E047CE89812B8195
:10406000D80112966C91129713964C91213009F455
:1040700067C0233009F048C038EF380F582F91E05F
:10408000431708F490E041E0531708F040E031E0B6
:10409000561708F430E0592F542B352319F4942384
:1040A00009F487CEFA8030E0F901E252FE4FD08069
:1040B00026523E4FF901E08040C0B901C8010E947C
:1040C0007FB381E012CE1882D80112968C9112979C
:1040D000898315968C91159781508A8313968C91BC
:1040E0008B8381E002CEF801458150E0440F551FDB
:1040F00070E060E0868197810E94FDD981E0F5CD76
:10410000F8018581888355CE481708F452CE86176A
:1041100008F44FCEFA80E12CD12C243070F4C3CFB8
:10412000BE01C8010E947FB3898198819D0D98834B
:104130008E0D8983FF0C09F43CCEF7FEF6CFF0CF4D
:1041400058E0580F382F9BCFDF92EF92FF920F93DA
:104150001F93CF93DF93EC01D62E1CAD0BAD7C01EA
:1041600084E0E80EF11CE98DFA8DC7010995412F15
:10417000480F2D2D602FC7010E9425B69BAD890FDA
:104180008BAF81E090E0DF91CF911F910F91FF9075
:10419000EF90DF9008958F929F92AF92BF92CF924F
:1041A000DF92EF92FF920F93CF93DF931F92CDB7E1
:1041B000DEB76C017B0149018091B4035B01A40E61
:1041C000B51E8823A1F0F60180819181480F591F07
:1041D000518340830F90DF91CF910F91FF90EF902B
:1041E000DF90CF90BF90AF909F908F900895F60191
:1041F000808191810E941CD789839091B503992376
:1042000011F0002311F0F7018083BE016F5F7F4F33
:10421000C4010E941DADF6018081918101969183B8
:104220008083FFEFEF1AFF0AEA14FB0401F7D2CFF5
:104230002F923F924F925F926F927F928F929F92B6
:10424000AF92BF92CF92DF92EF92FF920F931F93A4
:10425000CF93DF9300D000D000D0CDB7DEB79A83E4
:1042600089830E94A4B0A981BA811696CD90DD9071
:10427000ED90FC901997C114D104E104F10409F008
:104280007DC21C962C911C97222309F44DC01A96CE
:10429000EC911A9721501C962C931C9721E02E0F1D
:1042A0001A962C931A971D963C911D97231302C0C2
:1042B0001A961C92F0E03196EE0FFF1FEE0FFF1FD3
:1042C00029813A81E20FF31FC284D384E484F58408
:1042D000D9011296CD92DD92ED92FC9215976C0D5C
:1042E0007D1D811D911DF9016683778380879187EC
:1042F00084819581892BC1F0FFB7FD83F894A98152
:10430000BA8112962D903C9013972101712C612C4B
:1043100014960D911C91809131018B31F1F08F3FFA
:1043200009F496C0AD81AFBF26960FB6F894DEBFF4
:104330000FBECDBFDF91CF911F910F91FF90EF90F6
:10434000DF90CF90BF90AF909F908F907F906F90B5
:104350005F904F903F902F900895E1E6F1E2B49185
:10436000BE83B7FDDFCF8BE10E94449C3E813323A7
:1043700021F08E81823009F071C14801B12CA12C4D
:1043800060E072E18AE790E0A50198010E94AFD950
:1043900029833A834B835C8369017A0191E0C91ACE
:1043A000D108E108F108AFEFCA16D104E104F10425
:1043B00009F00CF42AC160E472E48FE090E0A501FA
:1043C00098010E94AFD969017A01B1E0CB1AD108F6
:1043D000E108F108EE81E23009F0CBC082E0FFEFA6
:1043E000CF16D104E104F10409F00CF424C260E911
:1043F00070ED83E090E0A50198010E94AFD96901BA
:104400007A0181E0C81AD108E108F10883E09FEF42
:10441000C916D104E104F10409F00CF40CC268E4FB
:1044200078EE81E090E0A50198010E94AFD9690182
:104430007A01A1E0CA1AD108E108F108BFEFCB1652
:10444000D104E104F10411F00CF0B7C084E0F3C131
:104450008BE180933101E1E6F1E224912E832F3F3D
:1044600009F460CF213039F168F0223009F441C0FD
:10447000233009F460C0FE81F7FD54CF8BE10E9428
:10448000449C77CF14BC15BC84B5826084BD85B5CF
:10449000816085BDEEEAF9E2E491F0E0EE0FFF1FE6
:1044A000E158F64D85919491EEECF9E2E491E093B8
:1044B0006B021E8258CF1092800010928100809172
:1044C0008100886080938100809181008160809369
:1044D0008100EEEAF9E2E491F0E0EE0FFF1FE1580F
:1044E000F64D85919491EEECF9E2E491E0936A0245
:1044F0003ACF1092B0001092B1008091B00082606B
:104500008093B0008091B10081608093B100EEEAA9
:10451000F9E2E491F0E0EE0FFF1FE158F64D8591CE
:1045200094919093F7048093F604EEECF9E2E49111
:10453000E093F80418CF10929000109291008091AF
:1045400091008860809391008091910081608093B8
:104550009100EEEAF9E2E491F0E0EE0FFF1FE1587E
:10456000F64D85919491EEECF9E2E491E0936902C5
:10457000FACEAFEFCA16D104E104F10409F00CF44D
:104580006BC068E478EE81E090E0A50198010E949C
:10459000AFD969017A01B1E0CB1AD108E108F1087D
:1045A000EE81EE2309F413C12FEFC216D104E1040A
:1045B000F10411F00CF014C149CF64E274EF80E013
:1045C00090E0A50194010E94AFD969017A01F1E060
:1045D000CF1AD108E108F10885E02FEFC216D10407
:1045E000E104F10409F008F426C162E17AE780E011
:1045F00090E0A50194010E94AFD969017A01E1E040
:10460000CE1AD108E108F108FDC081E0AE81A11108
:1046100012C195B5987F892B85BD2FEF3FEFA9017A
:1046200045284628472809F051C08E81813009F479
:1046300083C00CF07BC0811175CEC7BC209374027F
:1046400030937502409376025093770280916E000A
:10465000826080936E0066CE82E0D8CFB12CA12C10
:1046600060E072E18AE790E0A50198010E94AFD96D
:1046700069017A01B1E0CB1AD108E108F10891E0B3
:10468000C114D104E1E0EE06F10484F068E478EEB0
:1046900081E090E0A50198010E94AFD969017A01FB
:1046A000F1E0CF1AD108E108F10893E02E81213022
:1046B000D1F480918100887F892B809381002FEF36
:1046C0003FEFA901452846284728B1F19801220F5C
:1046D000331FD1010E946FD728EE33E040E050E055
:1046E0000E9442D7A2CF3E81333009F096CF80910D
:1046F0009100887F892B809391002FEF3FEFA901D4
:1047000045284628472811F7D0929900C092980072
:1047100020936C0230936D0240936E0250936F02AF
:1047200080917100826080937100FCCD9E819230F7
:10473000A9F0933049F3F6CDD0928900C092880059
:10474000209370023093710240937202509373026F
:1047500080916F00826080936F00E4CDC092B300BF
:104760002093F9043093FA044093FB045093FC0423
:1047700080917000826080937000D4CD6C197D09A7
:104780008E099F0997FDD0CD1498E981FA81168290
:10479000178210861186C8CD84E03FEFC316D1047E
:1047A000E104F10409F008F434CFC980DA80EB8029
:1047B000FC809AE0F594E794D794C7949A95D1F742
:1047C00021E0C21AD108E108F10885E022CF83E098
:1047D000FFEFCF16D104E104F10409F00CF419CF76
:1047E00062E17AE780E090E0A50194010E94AFD9F0
:1047F00069017A0181E0C81AD108E108F1089E81B7
:10480000992351F286E09FEFC916D104E104F10427
:1048100091F088F0C980DA80EB80FC808AE0F59422
:10482000E794D794C7948A95D1F781E0C81AD10844
:10483000E108F10887E09091B100987F892B80937F
:10484000B100EBCE8091670290916802009731F041
:104850004AE050E070E060E00C9461D060E070E00D
:10486000CB0108950E94222497FD0CC00E942224AF
:104870006F3F71058105910509F034F40E942224EF
:10488000862F089580E008958FEF08958091670244
:1048900090916802892B41F00E94322491E08111AD
:1048A00001C090E0892F089591E0FCCF80916702CC
:1048B00090916802009731F04AE050E070E060E0CB
:1048C0000C948FD160E070E0CB0108950F931F939B
:1048D000CF9380916702909168020097E9F0FC0104
:1048E0008F01C1912C2F2F7D81F0C53411F0C53679
:1048F000B9F7F801108270E060E00E9403CFF80180
:10490000C083CF911F910F91089570E060E0CF9127
:104910001F910F910C9403CF60E070E0CB01F1CFB9
:1049200080919A048230B1F090910010992359F04F
:1049300080911110811104C084E090E10C94DB9C03
:1049400081E190E1FBCF813041F082E49BE16FEFA8
:104950000C94A7BB84E69BE1FACF88E59BE1F7CFF7
:10496000282F1092F10480919B0690919C06A091B3
:104970009D06B0919E0681309048A105B10540F09A
:1049800010929B0610929C0610929D0610929E0615
:104990008091EC04882331F080919B068093E5049C
:1049A0001092E4048091E6041816FCF4082E000C22
:1049B000990B821B91092091E504022E000C330B08
:1049C0002817390794F097FF02C090E080E08093A9
:1049D000E504092E000CAA0BBB0B80939B06909359
:1049E0009C06A0939D06B0939E068091E5046623E5
:1049F000A9F09091E704891714F48093E7042091BB
:104A0000E704022E000C330B2C5F3F4F482F082E7B
:104A1000000C550B241735071CF484508093E704D1
:104A20000895809183048630D8F496E0899FF00140
:104A30001124E15AFB4F2091380130913901318323
:104A4000208340919B0650919C0660919D06709139
:104A50009E0642835383648375838F5F80938304B0
:104A60000895CF92DF92EF92FF920F931F93CF930F
:104A7000DF93EC016A017B0180913801909139014B
:104A80008C179D0781F12AE5C03ED207A9F584580D
:104A9000914371F40E94A4B06053784F8F4F9F4FA1
:104AA00060935B0470935C0480935D0490935E0458
:104AB000D0933901C0933801C0929B06D0929C06D6
:104AC000E0929D06F0929E06C458D14321F41092C4
:104AD000F6061092830482E08093450181E0809382
:104AE000E4041092F204DF91CF911F910F91FF9097
:104AF000EF90DF90CF90089521E3C438D207C1F63C
:104B0000805E9A4519F0C4E8D1E3D2CF0E94A4B0E8
:104B100000915B0410915C0420915D0430915E046F
:104B2000601B710B820B930B97FFEDCF8091CE0F23
:104B30009091CF0F891B8F7021F4809100108823F2
:104B400011F3CAECD5E2B4CF21E02093F6066093CE
:104B5000CA047093CB048093CC049093CD0440E0BE
:104B600050E0BA018091CE049091CF040C9431258D
:104B700060E070E080E291E40C94A42560E070E0D5
:104B800080E89FE30C94A4256DEC7CEC8CEC9DE319
:104B90000C94A42540E050E0BA0189E990E30E941A
:104BA00031251092A1041092A2041092A304109235
:104BB000A40481E08093F606089540E050E0BA0135
:104BC00084E891E30C943125E0918304EE2389F08D
:104BD000E150E093830486E0E89FF0011124E15A5C
:104BE000FB4F4281538164817581808191810C9456
:104BF00031250C94DD25CF93DF9361E081E00E94A5
:104C0000B024D091E704C0E08D2F8C0F99F48091EF
:104C1000E5048823B1F080914501882359F081E0B3
:104C20009091E504911180E024E04AE15FE16C2F6E
:104C30000E946FBACF5FC53039F781E08093E604F8
:104C40000CC08091F304882331F31092F3040E9486
:104C5000E4258091E4048823F1F2DF91CF91089557
:104C6000CF93DF9361E081E00E94B024D091E7040C
:104C7000C0E08D2F8C0F99F48091E5048823B1F06A
:104C800080914501882359F081E09091E5049111CC
:104C900080E024E042E15FE16C2F0E946FBACF5FB9
:104CA000C53039F781E08093E6040CC08091F304AD
:104CB000882331F31092F3040E94E4258091E404E8
:104CC0008823F1F2DF91CF9108952F923F924F9276
:104CD0005F926F927F928F929F92AF92BF92CF928C
:104CE000DF92EF92FF920F931F93CF93DF9300D049
:104CF00000D01F92CDB7DEB761E081E00E94B02402
:104D00002091E7042C832D83822F8B5F898387E09A
:104D1000922F821B8A8384E6C82ED12CE12CF12CA1
:104D200024EF822E2DE3922E2FE0A22EB12C86E0CE
:104D3000891B8B8337E5432E3EE3532E3FE0632EE2
:104D4000712C85E0282E291A84E0382E391AAC817E
:104D5000A1118FC08091E504882309F464C080917B
:104D60004501882361F06D81619581E09091E504B2
:104D7000911180E024E04AE05FE10E946FBA2CEAE2
:104D800035EC47E25EE36091E0047091E1048091CC
:104D9000E2049091E3040E9402D86093DC047093D3
:104DA000DD048093DE049093DF042CEA35EC47E2C7
:104DB0005EE36091D8047091D9048091DA049091F7
:104DC000DB040E94B4D36093D4047093D504809321
:104DD000D6049093D704BC81B43009F09CC1809173
:104DE000E504843009F43FC180914501882389F0AE
:104DF00011E08091E504843009F010E080ED94E04A
:104E00000E944AB79C0144ED5EE1632D812F0E9410
:104E10005BC2BC81BF5FBC8329812B1398CF88E024
:104E20008093E6040EC08091F304882309F497CFA1
:104E30001092F3040E94E4258091E404882309F48D
:104E40008ECF0F900F900F900F900F90DF91CF911A
:104E50001F910F91FF90EF90DF90CF90BF90AF9098
:104E60009F908F907F906F905F904F903F902F908A
:104E70000895BC81B13009F08DC08091E504813086
:104E800009F464C0809145018823A9F011E0809164
:104E9000E504813009F010E08091850F9091860F34
:104EA0000E949FB961E0AD816A1B9C014CEF5EE1FD
:104EB000812F0E945BC22CEA35EC47E25EE36091F1
:104EC000E0047091E1048091E2049091E3040E9477
:104ED00002D86093DC047093DD048093DE04909329
:104EE000DF042CEA35EC47E25EE36091D804709170
:104EF000D9048091DA049091DB040E94B4D36093CA
:104F0000D4047093D5048093D6049093D7049C81E5
:104F1000973009F07ECF8091E504873009F4E9C12C
:104F200080914501882309F474CF11E08091E50454
:104F3000873009F010E080912501909126010E94B0
:104F40009FB99C0142EA5EE16A8160CF8091F304DF
:104F5000882309F497CF1092F3042C812093F10455
:104F60001092ED041092EE041092EF041092F004EF
:104F70000FE31CE123E131E050E040E065E87FE031
:104F800083E09FE10E9426AF8091E404882309F426
:104F900079CF57CFBC81B23009F0CFC18091E50401
:104FA0008230D9F080914501882309F484CF11E043
:104FB0008091E504823009F010E08091AE06909176
:104FC000AF060E949FB962E02D81621B9C0144EFF5
:104FD0005EE1812F0E945BC2D2CE8091F3048823D0
:104FE00009F31092F30481E08093F1041092ED0430
:104FF0001092EE041092EF041092F00404EF17E305
:1050000029E630E050E040E06EEA76E088EF9EE18D
:105010000E9426AF8091E404882321F212CF809170
:10502000F304882309F492C11092F30481E0809381
:10503000F1041092ED041092EE041092EF0410921D
:10504000F00410E000E02FEF30E050E040E06AE7CD
:1050500079E08AEE9EE10E9426AF8091E4048823E5
:1050600009F474C1EECE8091F304882309F4BCCE18
:105070001092F3040E94112583E0809345018AED8C
:105080009EE19093AA068093A90680ED94E0909308
:10509000A8068093A706C092A306D092A406E09229
:1050A000A506F092A60680929F069092A006A09276
:1050B000A106B092A20620E030E048EC52E46091F4
:1050C000D0047091D1048091D2049091D3040E94B5
:1050D000B4D320E030E048EC52E40E947ED70E9436
:1050E0007BD860939B0670939C0680939D0690935B
:1050F0009E0689EE97EB90933901809338011092C8
:10510000AD061092AC061092AB068091E4048823A1
:1051100009F46ACE96CE2C81253009F075C08091B5
:10512000E5048530A1F080914501882309F471CE12
:1051300011E08091E504853009F010E08CED94E0F9
:105140000E944AB79C0148EC5EE1622D5FCE8091DF
:10515000F304882341F31092F3040E94112583E0A5
:10516000809345018EEC9EE19093AA068093A90658
:105170008CED94E09093A8068093A70681E090E0E0
:10518000A0E0B0E08093A3069093A406A093A506A8
:10519000B093A60640929F065092A0066092A10688
:1051A0007092A20620E030E048EC52E46091DC040A
:1051B0007091DD048091DE049091DF040E94B4D3ED
:1051C00020E030E040E85FE30E947ED70E947BD879
:1051D00060939B0670939C0680939D0690939E0619
:1051E00089EE97EB90933901809338018AEB97E130
:1051F0009093AD068093AC061092AB068091E404C8
:10520000882309F490CF1DCE9C81963009F07FCE83
:105210008091E5048630A1F080914501882309F44E
:10522000F8CD11E08091E504863009F010E084EDBE
:1052300094E00E944AB79C014CEB5EE16B81E6CDA5
:105240008091F304882341F31092F3040E94112506
:1052500083E080934501A2ECBEE1B093AA06A0933F
:10526000A90684ED94E09093A8068093A706C092C7
:10527000A306D092A406E092A506F092A60680921C
:105280009F069092A006A092A106B092A20620E0EE
:1052900030E048EC52E46091D4047091D5048091E0
:1052A000D6049091D7040E94B4D320E030E048ECBB
:1052B00052E40E947ED70E947BD860939B06709335
:1052C0009C0680939D0690939E0689EE97EB9093A3
:1052D00039018093380183EA97E19093AD0680937A
:1052E000AC061092AB068091E404882309F494CFB5
:1052F000A8CD8091F304882309F412CE1092F30410
:1053000081E08093F1041092ED041092EE0410926B
:10531000EF041092F00401E914E723E131E046E9DB
:1053200050E065E271E08FEA9EE10E9426AF809135
:10533000E404882309F4F4CD84CD8C81833009F012
:105340001ECD8091E504833009F469CE809145013A
:10535000882309F4B0CD11E08091E504833009F091
:1053600010E080917A0990917B090E949FB963E0D7
:10537000AD816A1B9C0140EE5EE12BCEDF92EF9285
:10538000FF920F931F93CF93DF9361E081E00E9420
:10539000B024C091E70485E0E82EEC0ED4E0DC1BDD
:1053A00013E01C1B02E00C1B81E0F82EFC1ADC2E23
:1053B000D194C1112EC08091E5048823B1F0809171
:1053C0004501882359F081E09091E504911180E036
:1053D00024E048E35EE16D2D0E946FBACF5FEC12CE
:1053E000E8CF85E08093E6040CC08091F304882325
:1053F00031F31092F3040E94E4258091E4048823A1
:10540000F1F2DF91CF911F910F91FF90EF90DF901C
:105410000895C13011F58091E504813079F08091D3
:1054200045018823D9F281E09091E504913009F09B
:1054300080E023E041E35EE16F2DCECF8091F30465
:10544000882369F31092F30481E19CE20E94B4C2C4
:105450008091E404882319F3D4CFC23009F055C0F9
:105460008091E504823081F080914501882309F420
:10547000B5CF81E09091E504923009F080E023E01F
:105480004AE25EE1602FA8CF8091F304882361F3A4
:105490001092F30486E19CE20E94B4C28091E4047D
:1054A000882311F3AECF8091E504833081F08091A1
:1054B0004501882309F492CF81E09091E50493306F
:1054C00009F080E023E043E25EE1612F85CF809127
:1054D000F304882361F31092F3048BE19CE20E94B1
:1054E000B4C28091E404882311F38BCF8091F3043C
:1054F0008823A1F01092F30480E29CE20E94B4C2DF
:105500008091E404882351F07CCFC33061F2C43031
:1055100009F064CF8091E504843041F38091450126
:10552000882309F45BCF81E09091E504943009F081
:1055300080E023E04AE15EE16D2F4ECFCF92DF9213
:10554000EF92FF920F931F93CF93DF93182F7093D7
:10555000CF046093CE0461E081E00E94B024C0914A
:10556000E70485E0D82EDC0E81E004E00C1B93E01C
:10557000F92EFC1A92E0E92EEC1AC82ECC1ADC2F78
:10558000D195113009F45BC058F1123009F482C092
:10559000C111A9C08823D9F08091E5041816BCF088
:1055A00040919B0650919C0660919D0670919E06CD
:1055B0004F5F5F4F6F4F7F4F40939B0650939C060A
:1055C00060939D0670939E068F5F8093E5048091A3
:1055D0004501882361F121E041E06CEF7DE156C097
:1055E000C11181C08823D9F08091E5041816BCF060
:1055F00040919B0650919C0660919D0670919E067D
:105600004F5F5F4F6F4F7F4F40939B0650939C06B9
:1056100060939D0670939E068F5F8093E504809152
:10562000450121E041E063E17EE181112FC080E08E
:10563000CF5FDC12A6CF85E08093E60478C0C1116D
:1056400052C08823D9F08091E5041816BCF040912F
:105650009B0650919C0660919D0670919E064F5F3F
:105660005F4F6F4F7F4F40939B0650939C06609314
:105670009D0670939E068F5F8093E504809145019F
:1056800021E041E06CE07EE1882389F28D2F0E94C9
:10569000CABECDCFC11127C08823D9F08091E504BF
:1056A0001816BCF040919B0650919C0660919D0697
:1056B00070919E064F5F5F4F6F4F7F4F40939B06E9
:1056C00050939C0660939D0670939E068F5F809317
:1056D000E5048091450121E041E065E07EE1882319
:1056E00009F4A5CFD3CFC13059F58091E5048130BD
:1056F00091F080914501882309F499CF81E0909140
:10570000E504913009F080E024E042EF5DE16C2D8A
:105710000E946FBA8CCF8091F304882351F31092CA
:10572000F3040E94E4258091E404882311F3DF91BF
:10573000CF911F910F91FF90EF90DF90CF90089540
:10574000C23009F055C08091E504823081F080912B
:105750004501882309F46BCF81E09091E5049230F4
:1057600009F080E023E048EE5DE16E2DD1CF80911D
:10577000F304882361F31092F30488EB95E20E940E
:10578000B4C28091E404882311F3D1CF8091E50461
:10579000833081F080914501882309F448CF81E06E
:1057A0009091E504933009F080E023E04FED5DE156
:1057B0006F2DAECF8091F304882361F31092F30430
:1057C0008EEB95E20E94B4C28091E404882311F329
:1057D000AECF8091F3048823A1F01092F30484ECFF
:1057E00095E20E94B4C28091E404882351F09FCFD7
:1057F000C33061F2C43009F01ACF8091E5048430DF
:1058000041F380914501882309F411CF81E0909103
:10581000E504943009F080E023E044ED5DE1602F81
:1058200077CF64E970E380E00C949E2A6FE870E320
:1058300081E00C949E2A6AE870E382E00C949E2A30
:1058400067E17FE283E00C949E2AEF92FF920F9330
:105850001F93CF93DF9361E081E00E94B024C09159
:10586000E70485E0F82EFC0ED3E0DC1B12E01C1BE5
:1058700001E00C1BEC2EE194C1112DC08091E504D8
:105880008823B1F080914501882359F081E09091FF
:10589000E504911180E024E04AEB5CE16E2D0E946A
:1058A0006FBACF5FFC12E8CF84E08093E6040CC0AF
:1058B0008091F304882331F31092F3040E94E425CD
:1058C0008091E4048823F1F2DF91CF911F910F9131
:1058D000FF90EF900895C13061F58091E50481302B
:1058E00079F0809145018823E1F281E09091E5040F
:1058F000913009F080E020E24EEA5CE1602FCFCFEA
:105900008091F304882369F31092F3044091AD046D
:105910005091AE046091A9047091AA048091A504ED
:105920009091A6040E94D3BA8091E4048823C9F21E
:10593000CBCFC23009F042C08091E504823081F0C3
:1059400080914501882309F4ACCF81E09091E50472
:10595000923009F080E020E24EE95CE1612F9FCFB8
:105960008091F304882361F31092F3044091AD0415
:105970005091AE046FEF7FEF8091A5049091A60443
:105980000E94D3BA8091E4048823D1F29DCF809104
:10599000F3048823D1F01092F3044091AD045091A8
:1059A000AE046091A9047091AA0490E080E00E9486
:1059B000D3BA8091E404882341F086CFC33009F044
:1059C00070CF8091E504833011F3809145018823E5
:1059D00009F467CF81E09091E504933009F080E00D
:1059E00020E24EE85CE16D2F5ACFEF92FF920F93C9
:1059F0001F93CF93DF9361E081E00E94B024C091B8
:105A0000E70485E0F82EFC0ED3E0DC1B12E01C1B43
:105A100001E00C1BEC2EE194C1112DC08091E50436
:105A20008823B1F080914501882359F081E090915D
:105A3000E504911180E024E04EEE5CE16E2D0E94C1
:105A40006FBACF5FFC12E8CF84E08093E6040CC00D
:105A50008091F304882331F31092F3040E94E4252B
:105A60008091E4048823F1F2DF91CF911F910F918F
:105A7000FF90EF900895C13061F58091E504813089
:105A800079F0809145018823E1F281E09091E5046D
:105A9000913009F080E020E242EE5CE1602FCFCF50
:105AA0008091F304882369F31092F3044091AF04CA
:105AB0005091B0046091AB047091AC048091A70444
:105AC0009091A8040E94D3BA8091E4048823C9F27B
:105AD000CBCFC23009F042C08091E504823081F022
